{
	"src/CrossDao.sol": {
		"CrossDao": {
			"abi": [
				{
					"inputs": [],
					"stateMutability": "nonpayable",
					"type": "constructor"
				},
				{
					"inputs": [],
					"name": "Deny",
					"type": "error"
				},
				{
					"inputs": [],
					"name": "Sour",
					"type": "error"
				},
				{
					"inputs": [
						{
							"internalType": "address",
							"name": "what",
							"type": "address"
						}
					],
					"name": "init",
					"outputs": [],
					"stateMutability": "nonpayable",
					"type": "function"
				},
				{
					"inputs": [
						{
							"internalType": "uint256",
							"name": "flow",
							"type": "uint256"
						}
					],
					"name": "leap",
					"outputs": [],
					"stateMutability": "nonpayable",
					"type": "function"
				},
				{
					"inputs": [
						{
							"internalType": "address",
							"name": "gene",
							"type": "address"
						}
					],
					"name": "mine",
					"outputs": [],
					"stateMutability": "nonpayable",
					"type": "function"
				},
				{
					"inputs": [
						{
							"internalType": "uint256",
							"name": "life",
							"type": "uint256"
						}
					],
					"name": "sail",
					"outputs": [],
					"stateMutability": "nonpayable",
					"type": "function"
				},
				{
					"inputs": [],
					"name": "star",
					"outputs": [
						{
							"internalType": "address",
							"name": "",
							"type": "address"
						}
					],
					"stateMutability": "view",
					"type": "function"
				},
				{
					"inputs": [],
					"name": "ward",
					"outputs": [
						{
							"internalType": "address",
							"name": "",
							"type": "address"
						}
					],
					"stateMutability": "view",
					"type": "function"
				}
			],
			"devdoc": {
				"kind": "dev",
				"methods": {},
				"version": 1
			},
			"evm": {
				"assembly": "    /* \"src/CrossDao.sol\":192:1068  contract CrossDao {... */\n  mstore(0x40, 0xa0)\n    /* \"src/CrossDao.sol\":314:362  constructor() {... */\n  callvalue\n  dup1\n  iszero\n  tag_1\n  jumpi\n  0x00\n  dup1\n  revert\ntag_1:\n  pop\n    /* \"src/CrossDao.sol\":345:355  msg.sender */\n  caller\n    /* \"src/CrossDao.sol\":338:355  ward = msg.sender */\n  0xffffffffffffffffffffffffffffffffffffffff\n  and\n  0x80\n  dup2\n  0xffffffffffffffffffffffffffffffffffffffff\n  and\n  dup2\n  mstore\n  pop\n  pop\n    /* \"src/CrossDao.sol\":192:1068  contract CrossDao {... */\n  mload(0x80)\n  codecopy(0x00, dataOffset(sub_0), dataSize(sub_0))\n  0x00\n  assignImmutable(\"0x8fef2229291b68be841adf029e58b87f39ba144b2d3b0af1760243d0a9bc6a1c\")\n  return(0x00, dataSize(sub_0))\nstop\n\nsub_0: assembly {\n        /* \"src/CrossDao.sol\":192:1068  contract CrossDao {... */\n      mstore(0x40, 0x80)\n      callvalue\n      dup1\n      iszero\n      tag_1\n      jumpi\n      0x00\n      dup1\n      revert\n    tag_1:\n      pop\n      jumpi(tag_2, lt(calldatasize, 0x04))\n      shr(0xe0, calldataload(0x00))\n      dup1\n      0x19ab453c\n      eq\n      tag_3\n      jumpi\n      dup1\n      0x2c6dbb1c\n      eq\n      tag_4\n      jumpi\n      dup1\n      0x4a225440\n      eq\n      tag_5\n      jumpi\n      dup1\n      0x55d6c710\n      eq\n      tag_6\n      jumpi\n      dup1\n      0x81923240\n      eq\n      tag_7\n      jumpi\n      dup1\n      0x9aa60802\n      eq\n      tag_8\n      jumpi\n    tag_2:\n      0x00\n      dup1\n      revert\n        /* \"src/CrossDao.sol\":368:527  function init(address what) public {... */\n    tag_3:\n      tag_9\n      0x04\n      dup1\n      calldatasize\n      sub\n      dup2\n      add\n      swap1\n      tag_10\n      swap2\n      swap1\n      tag_11\n      jump\t// in\n    tag_10:\n      tag_12\n      jump\t// in\n    tag_9:\n      stop\n        /* \"src/CrossDao.sol\":216:235  address public star */\n    tag_4:\n      tag_13\n      tag_14\n      jump\t// in\n    tag_13:\n      mload(0x40)\n      tag_15\n      swap2\n      swap1\n      tag_16\n      jump\t// in\n    tag_15:\n      mload(0x40)\n      dup1\n      swap2\n      sub\n      swap1\n      return\n        /* \"src/CrossDao.sol\":734:934  function sail(uint256 life) public {... */\n    tag_5:\n      tag_17\n      0x04\n      dup1\n      calldatasize\n      sub\n      dup2\n      add\n      swap1\n      tag_18\n      swap2\n      swap1\n      tag_19\n      jump\t// in\n    tag_18:\n      tag_20\n      jump\t// in\n    tag_17:\n      stop\n        /* \"src/CrossDao.sol\":241:270  address public immutable ward */\n    tag_6:\n      tag_21\n      tag_22\n      jump\t// in\n    tag_21:\n      mload(0x40)\n      tag_23\n      swap2\n      swap1\n      tag_16\n      jump\t// in\n    tag_23:\n      mload(0x40)\n      dup1\n      swap2\n      sub\n      swap1\n      return\n        /* \"src/CrossDao.sol\":940:1066  function mine(address gene) public {... */\n    tag_7:\n      tag_24\n      0x04\n      dup1\n      calldatasize\n      sub\n      dup2\n      add\n      swap1\n      tag_25\n      swap2\n      swap1\n      tag_11\n      jump\t// in\n    tag_25:\n      tag_26\n      jump\t// in\n    tag_24:\n      stop\n        /* \"src/CrossDao.sol\":533:728  function leap(uint256 flow) public {... */\n    tag_8:\n      tag_27\n      0x04\n      dup1\n      calldatasize\n      sub\n      dup2\n      add\n      swap1\n      tag_28\n      swap2\n      swap1\n      tag_19\n      jump\t// in\n    tag_28:\n      tag_29\n      jump\t// in\n    tag_27:\n      stop\n        /* \"src/CrossDao.sol\":368:527  function init(address what) public {... */\n    tag_12:\n        /* \"src/CrossDao.sol\":431:435  ward */\n      immutable(\"0x8fef2229291b68be841adf029e58b87f39ba144b2d3b0af1760243d0a9bc6a1c\")\n        /* \"src/CrossDao.sol\":417:435  msg.sender != ward */\n      0xffffffffffffffffffffffffffffffffffffffff\n      and\n        /* \"src/CrossDao.sol\":417:427  msg.sender */\n      caller\n        /* \"src/CrossDao.sol\":417:435  msg.sender != ward */\n      0xffffffffffffffffffffffffffffffffffffffff\n      and\n      eq\n        /* \"src/CrossDao.sol\":413:450  if (msg.sender != ward) revert Deny() */\n      tag_31\n      jumpi\n        /* \"src/CrossDao.sol\":444:450  Deny() */\n      mload(0x40)\n      0x0b41940b00000000000000000000000000000000000000000000000000000000\n      dup2\n      mstore\n      0x04\n      add\n      mload(0x40)\n      dup1\n      swap2\n      sub\n      swap1\n      revert\n        /* \"src/CrossDao.sol\":413:450  if (msg.sender != ward) revert Deny() */\n    tag_31:\n        /* \"src/CrossDao.sol\":480:483  0x0 */\n      0x00\n        /* \"src/CrossDao.sol\":464:484  star != address(0x0) */\n      0xffffffffffffffffffffffffffffffffffffffff\n      and\n        /* \"src/CrossDao.sol\":464:468  star */\n      0x00\n      dup1\n      sload\n      swap1\n      0x0100\n      exp\n      swap1\n      div\n      0xffffffffffffffffffffffffffffffffffffffff\n      and\n        /* \"src/CrossDao.sol\":464:484  star != address(0x0) */\n      0xffffffffffffffffffffffffffffffffffffffff\n      and\n      eq\n        /* \"src/CrossDao.sol\":460:499  if (star != address(0x0)) revert Sour() */\n      tag_32\n      jumpi\n        /* \"src/CrossDao.sol\":493:499  Sour() */\n      mload(0x40)\n      0x6f147afa00000000000000000000000000000000000000000000000000000000\n      dup2\n      mstore\n      0x04\n      add\n      mload(0x40)\n      dup1\n      swap2\n      sub\n      swap1\n      revert\n        /* \"src/CrossDao.sol\":460:499  if (star != address(0x0)) revert Sour() */\n    tag_32:\n        /* \"src/CrossDao.sol\":516:520  what */\n      dup1\n        /* \"src/CrossDao.sol\":509:513  star */\n      0x00\n      dup1\n        /* \"src/CrossDao.sol\":509:520  star = what */\n      0x0100\n      exp\n      dup2\n      sload\n      dup2\n      0xffffffffffffffffffffffffffffffffffffffff\n      mul\n      not\n      and\n      swap1\n      dup4\n      0xffffffffffffffffffffffffffffffffffffffff\n      and\n      mul\n      or\n      swap1\n      sstore\n      pop\n        /* \"src/CrossDao.sol\":368:527  function init(address what) public {... */\n      pop\n      jump\t// out\n        /* \"src/CrossDao.sol\":216:235  address public star */\n    tag_14:\n      0x00\n      dup1\n      sload\n      swap1\n      0x0100\n      exp\n      swap1\n      div\n      0xffffffffffffffffffffffffffffffffffffffff\n      and\n      dup2\n      jump\t// out\n        /* \"src/CrossDao.sol\":734:934  function sail(uint256 life) public {... */\n    tag_20:\n        /* \"src/CrossDao.sol\":797:801  ward */\n      immutable(\"0x8fef2229291b68be841adf029e58b87f39ba144b2d3b0af1760243d0a9bc6a1c\")\n        /* \"src/CrossDao.sol\":783:801  msg.sender != ward */\n      0xffffffffffffffffffffffffffffffffffffffff\n      and\n        /* \"src/CrossDao.sol\":783:793  msg.sender */\n      caller\n        /* \"src/CrossDao.sol\":783:801  msg.sender != ward */\n      0xffffffffffffffffffffffffffffffffffffffff\n      and\n      eq\n        /* \"src/CrossDao.sol\":779:816  if (msg.sender != ward) revert Deny() */\n      tag_34\n      jumpi\n        /* \"src/CrossDao.sol\":810:816  Deny() */\n      mload(0x40)\n      0x0b41940b00000000000000000000000000000000000000000000000000000000\n      dup2\n      mstore\n      0x04\n      add\n      mload(0x40)\n      dup1\n      swap2\n      sub\n      swap1\n      revert\n        /* \"src/CrossDao.sol\":779:816  if (msg.sender != ward) revert Deny() */\n    tag_34:\n        /* \"src/CrossDao.sol\":837:848  36_135 days */\n      0xba16ea80\n        /* \"src/CrossDao.sol\":830:834  life */\n      dup2\n        /* \"src/CrossDao.sol\":830:848  life > 36_135 days */\n      gt\n        /* \"src/CrossDao.sol\":830:867  life > 36_135 days || life < 701 days */\n      dup1\n      tag_35\n      jumpi\n      pop\n        /* \"src/CrossDao.sol\":859:867  701 days */\n      0x039c2b80\n        /* \"src/CrossDao.sol\":852:856  life */\n      dup2\n        /* \"src/CrossDao.sol\":852:867  life < 701 days */\n      lt\n        /* \"src/CrossDao.sol\":830:867  life > 36_135 days || life < 701 days */\n    tag_35:\n        /* \"src/CrossDao.sol\":826:882  if (life > 36_135 days || life < 701 days) revert Sour() */\n      iszero\n      tag_36\n      jumpi\n        /* \"src/CrossDao.sol\":876:882  Sour() */\n      mload(0x40)\n      0x6f147afa00000000000000000000000000000000000000000000000000000000\n      dup2\n      mstore\n      0x04\n      add\n      mload(0x40)\n      dup1\n      swap2\n      sub\n      swap1\n      revert\n        /* \"src/CrossDao.sol\":826:882  if (life > 36_135 days || life < 701 days) revert Sour() */\n    tag_36:\n        /* \"src/CrossDao.sol\":903:907  star */\n      0x00\n      dup1\n      sload\n      swap1\n      0x0100\n      exp\n      swap1\n      div\n      0xffffffffffffffffffffffffffffffffffffffff\n      and\n        /* \"src/CrossDao.sol\":892:913  ISoulbound(star).file */\n      0xffffffffffffffffffffffffffffffffffffffff\n      and\n      0x29ae8114\n        /* \"src/CrossDao.sol\":922:926  life */\n      dup3\n        /* \"src/CrossDao.sol\":892:927  ISoulbound(star).file(\"life\", life) */\n      mload(0x40)\n      dup3\n      0xffffffff\n      and\n      0xe0\n      shl\n      dup2\n      mstore\n      0x04\n      add\n      tag_37\n      swap2\n      swap1\n      tag_38\n      jump\t// in\n    tag_37:\n      0x00\n      mload(0x40)\n      dup1\n      dup4\n      sub\n      dup2\n      0x00\n      dup8\n      dup1\n      extcodesize\n      iszero\n      dup1\n      iszero\n      tag_39\n      jumpi\n      0x00\n      dup1\n      revert\n    tag_39:\n      pop\n      gas\n      call\n      iszero\n      dup1\n      iszero\n      tag_41\n      jumpi\n      returndatasize\n      0x00\n      dup1\n      returndatacopy\n      revert(0x00, returndatasize)\n    tag_41:\n      pop\n      pop\n      pop\n      pop\n        /* \"src/CrossDao.sol\":734:934  function sail(uint256 life) public {... */\n      pop\n      jump\t// out\n        /* \"src/CrossDao.sol\":241:270  address public immutable ward */\n    tag_22:\n      immutable(\"0x8fef2229291b68be841adf029e58b87f39ba144b2d3b0af1760243d0a9bc6a1c\")\n      dup2\n      jump\t// out\n        /* \"src/CrossDao.sol\":940:1066  function mine(address gene) public {... */\n    tag_26:\n        /* \"src/CrossDao.sol\":1003:1007  ward */\n      immutable(\"0x8fef2229291b68be841adf029e58b87f39ba144b2d3b0af1760243d0a9bc6a1c\")\n        /* \"src/CrossDao.sol\":989:1007  msg.sender != ward */\n      0xffffffffffffffffffffffffffffffffffffffff\n      and\n        /* \"src/CrossDao.sol\":989:999  msg.sender */\n      caller\n        /* \"src/CrossDao.sol\":989:1007  msg.sender != ward */\n      0xffffffffffffffffffffffffffffffffffffffff\n      and\n      eq\n        /* \"src/CrossDao.sol\":985:1022  if (msg.sender != ward) revert Deny() */\n      tag_43\n      jumpi\n        /* \"src/CrossDao.sol\":1016:1022  Deny() */\n      mload(0x40)\n      0x0b41940b00000000000000000000000000000000000000000000000000000000\n      dup2\n      mstore\n      0x04\n      add\n      mload(0x40)\n      dup1\n      swap2\n      sub\n      swap1\n      revert\n        /* \"src/CrossDao.sol\":985:1022  if (msg.sender != ward) revert Deny() */\n    tag_43:\n        /* \"src/CrossDao.sol\":1043:1047  star */\n      0x00\n      dup1\n      sload\n      swap1\n      0x0100\n      exp\n      swap1\n      div\n      0xffffffffffffffffffffffffffffffffffffffff\n      and\n        /* \"src/CrossDao.sol\":1032:1053  ISoulbound(star).bump */\n      0xffffffffffffffffffffffffffffffffffffffff\n      and\n      0xd975f716\n        /* \"src/CrossDao.sol\":1054:1058  gene */\n      dup3\n        /* \"src/CrossDao.sol\":1032:1059  ISoulbound(star).bump(gene) */\n      mload(0x40)\n      dup3\n      0xffffffff\n      and\n      0xe0\n      shl\n      dup2\n      mstore\n      0x04\n      add\n      tag_44\n      swap2\n      swap1\n      tag_16\n      jump\t// in\n    tag_44:\n      0x00\n      mload(0x40)\n      dup1\n      dup4\n      sub\n      dup2\n      0x00\n      dup8\n      dup1\n      extcodesize\n      iszero\n      dup1\n      iszero\n      tag_45\n      jumpi\n      0x00\n      dup1\n      revert\n    tag_45:\n      pop\n      gas\n      call\n      iszero\n      dup1\n      iszero\n      tag_47\n      jumpi\n      returndatasize\n      0x00\n      dup1\n      returndatacopy\n      revert(0x00, returndatasize)\n    tag_47:\n      pop\n      pop\n      pop\n      pop\n        /* \"src/CrossDao.sol\":940:1066  function mine(address gene) public {... */\n      pop\n      jump\t// out\n        /* \"src/CrossDao.sol\":533:728  function leap(uint256 flow) public {... */\n    tag_29:\n        /* \"src/CrossDao.sol\":596:600  ward */\n      immutable(\"0x8fef2229291b68be841adf029e58b87f39ba144b2d3b0af1760243d0a9bc6a1c\")\n        /* \"src/CrossDao.sol\":582:600  msg.sender != ward */\n      0xffffffffffffffffffffffffffffffffffffffff\n      and\n        /* \"src/CrossDao.sol\":582:592  msg.sender */\n      caller\n        /* \"src/CrossDao.sol\":582:600  msg.sender != ward */\n      0xffffffffffffffffffffffffffffffffffffffff\n      and\n      eq\n        /* \"src/CrossDao.sol\":578:615  if (msg.sender != ward) revert Deny() */\n      tag_49\n      jumpi\n        /* \"src/CrossDao.sol\":609:615  Deny() */\n      mload(0x40)\n      0x0b41940b00000000000000000000000000000000000000000000000000000000\n      dup2\n      mstore\n      0x04\n      add\n      mload(0x40)\n      dup1\n      swap2\n      sub\n      swap1\n      revert\n        /* \"src/CrossDao.sol\":578:615  if (msg.sender != ward) revert Deny() */\n    tag_49:\n        /* \"src/CrossDao.sol\":636:644  700 days */\n      0x039ada00\n        /* \"src/CrossDao.sol\":629:633  flow */\n      dup2\n        /* \"src/CrossDao.sol\":629:644  flow > 700 days */\n      gt\n        /* \"src/CrossDao.sol\":629:661  flow > 700 days || flow < 2 days */\n      dup1\n      tag_50\n      jumpi\n      pop\n        /* \"src/CrossDao.sol\":655:661  2 days */\n      0x02a300\n        /* \"src/CrossDao.sol\":648:652  flow */\n      dup2\n        /* \"src/CrossDao.sol\":648:661  flow < 2 days */\n      lt\n        /* \"src/CrossDao.sol\":629:661  flow > 700 days || flow < 2 days */\n    tag_50:\n        /* \"src/CrossDao.sol\":625:676  if (flow > 700 days || flow < 2 days) revert Sour() */\n      iszero\n      tag_51\n      jumpi\n        /* \"src/CrossDao.sol\":670:676  Sour() */\n      mload(0x40)\n      0x6f147afa00000000000000000000000000000000000000000000000000000000\n      dup2\n      mstore\n      0x04\n      add\n      mload(0x40)\n      dup1\n      swap2\n      sub\n      swap1\n      revert\n        /* \"src/CrossDao.sol\":625:676  if (flow > 700 days || flow < 2 days) revert Sour() */\n    tag_51:\n        /* \"src/CrossDao.sol\":697:701  star */\n      0x00\n      dup1\n      sload\n      swap1\n      0x0100\n      exp\n      swap1\n      div\n      0xffffffffffffffffffffffffffffffffffffffff\n      and\n        /* \"src/CrossDao.sol\":686:707  ISoulbound(star).file */\n      0xffffffffffffffffffffffffffffffffffffffff\n      and\n      0x29ae8114\n        /* \"src/CrossDao.sol\":716:720  flow */\n      dup3\n        /* \"src/CrossDao.sol\":686:721  ISoulbound(star).file(\"flow\", flow) */\n      mload(0x40)\n      dup3\n      0xffffffff\n      and\n      0xe0\n      shl\n      dup2\n      mstore\n      0x04\n      add\n      tag_52\n      swap2\n      swap1\n      tag_53\n      jump\t// in\n    tag_52:\n      0x00\n      mload(0x40)\n      dup1\n      dup4\n      sub\n      dup2\n      0x00\n      dup8\n      dup1\n      extcodesize\n      iszero\n      dup1\n      iszero\n      tag_54\n      jumpi\n      0x00\n      dup1\n      revert\n    tag_54:\n      pop\n      gas\n      call\n      iszero\n      dup1\n      iszero\n      tag_56\n      jumpi\n      returndatasize\n      0x00\n      dup1\n      returndatacopy\n      revert(0x00, returndatasize)\n    tag_56:\n      pop\n      pop\n      pop\n      pop\n        /* \"src/CrossDao.sol\":533:728  function leap(uint256 flow) public {... */\n      pop\n      jump\t// out\n        /* \"#utility.yul\":88:205   */\n    tag_58:\n        /* \"#utility.yul\":197:198   */\n      0x00\n        /* \"#utility.yul\":194:195   */\n      dup1\n        /* \"#utility.yul\":187:199   */\n      revert\n        /* \"#utility.yul\":334:460   */\n    tag_60:\n        /* \"#utility.yul\":371:378   */\n      0x00\n        /* \"#utility.yul\":411:453   */\n      0xffffffffffffffffffffffffffffffffffffffff\n        /* \"#utility.yul\":404:409   */\n      dup3\n        /* \"#utility.yul\":400:454   */\n      and\n        /* \"#utility.yul\":389:454   */\n      swap1\n      pop\n        /* \"#utility.yul\":334:460   */\n      swap2\n      swap1\n      pop\n      jump\t// out\n        /* \"#utility.yul\":466:562   */\n    tag_61:\n        /* \"#utility.yul\":503:510   */\n      0x00\n        /* \"#utility.yul\":532:556   */\n      tag_77\n        /* \"#utility.yul\":550:555   */\n      dup3\n        /* \"#utility.yul\":532:556   */\n      tag_60\n      jump\t// in\n    tag_77:\n        /* \"#utility.yul\":521:556   */\n      swap1\n      pop\n        /* \"#utility.yul\":466:562   */\n      swap2\n      swap1\n      pop\n      jump\t// out\n        /* \"#utility.yul\":568:690   */\n    tag_62:\n        /* \"#utility.yul\":641:665   */\n      tag_79\n        /* \"#utility.yul\":659:664   */\n      dup2\n        /* \"#utility.yul\":641:665   */\n      tag_61\n      jump\t// in\n    tag_79:\n        /* \"#utility.yul\":634:639   */\n      dup2\n        /* \"#utility.yul\":631:666   */\n      eq\n        /* \"#utility.yul\":621:684   */\n      tag_80\n      jumpi\n        /* \"#utility.yul\":680:681   */\n      0x00\n        /* \"#utility.yul\":677:678   */\n      dup1\n        /* \"#utility.yul\":670:682   */\n      revert\n        /* \"#utility.yul\":621:684   */\n    tag_80:\n        /* \"#utility.yul\":568:690   */\n      pop\n      jump\t// out\n        /* \"#utility.yul\":696:835   */\n    tag_63:\n        /* \"#utility.yul\":742:747   */\n      0x00\n        /* \"#utility.yul\":780:786   */\n      dup2\n        /* \"#utility.yul\":767:787   */\n      calldataload\n        /* \"#utility.yul\":758:787   */\n      swap1\n      pop\n        /* \"#utility.yul\":796:829   */\n      tag_82\n        /* \"#utility.yul\":823:828   */\n      dup2\n        /* \"#utility.yul\":796:829   */\n      tag_62\n      jump\t// in\n    tag_82:\n        /* \"#utility.yul\":696:835   */\n      swap3\n      swap2\n      pop\n      pop\n      jump\t// out\n        /* \"#utility.yul\":841:1170   */\n    tag_11:\n        /* \"#utility.yul\":900:906   */\n      0x00\n        /* \"#utility.yul\":949:951   */\n      0x20\n        /* \"#utility.yul\":937:946   */\n      dup3\n        /* \"#utility.yul\":928:935   */\n      dup5\n        /* \"#utility.yul\":924:947   */\n      sub\n        /* \"#utility.yul\":920:952   */\n      slt\n        /* \"#utility.yul\":917:1036   */\n      iszero\n      tag_84\n      jumpi\n        /* \"#utility.yul\":955:1034   */\n      tag_85\n      tag_58\n      jump\t// in\n    tag_85:\n        /* \"#utility.yul\":917:1036   */\n    tag_84:\n        /* \"#utility.yul\":1075:1076   */\n      0x00\n        /* \"#utility.yul\":1100:1153   */\n      tag_86\n        /* \"#utility.yul\":1145:1152   */\n      dup5\n        /* \"#utility.yul\":1136:1142   */\n      dup3\n        /* \"#utility.yul\":1125:1134   */\n      dup6\n        /* \"#utility.yul\":1121:1143   */\n      add\n        /* \"#utility.yul\":1100:1153   */\n      tag_63\n      jump\t// in\n    tag_86:\n        /* \"#utility.yul\":1090:1153   */\n      swap2\n      pop\n        /* \"#utility.yul\":1046:1163   */\n      pop\n        /* \"#utility.yul\":841:1170   */\n      swap3\n      swap2\n      pop\n      pop\n      jump\t// out\n        /* \"#utility.yul\":1176:1294   */\n    tag_64:\n        /* \"#utility.yul\":1263:1287   */\n      tag_88\n        /* \"#utility.yul\":1281:1286   */\n      dup2\n        /* \"#utility.yul\":1263:1287   */\n      tag_61\n      jump\t// in\n    tag_88:\n        /* \"#utility.yul\":1258:1261   */\n      dup3\n        /* \"#utility.yul\":1251:1288   */\n      mstore\n        /* \"#utility.yul\":1176:1294   */\n      pop\n      pop\n      jump\t// out\n        /* \"#utility.yul\":1300:1522   */\n    tag_16:\n        /* \"#utility.yul\":1393:1397   */\n      0x00\n        /* \"#utility.yul\":1431:1433   */\n      0x20\n        /* \"#utility.yul\":1420:1429   */\n      dup3\n        /* \"#utility.yul\":1416:1434   */\n      add\n        /* \"#utility.yul\":1408:1434   */\n      swap1\n      pop\n        /* \"#utility.yul\":1444:1515   */\n      tag_90\n        /* \"#utility.yul\":1512:1513   */\n      0x00\n        /* \"#utility.yul\":1501:1510   */\n      dup4\n        /* \"#utility.yul\":1497:1514   */\n      add\n        /* \"#utility.yul\":1488:1494   */\n      dup5\n        /* \"#utility.yul\":1444:1515   */\n      tag_64\n      jump\t// in\n    tag_90:\n        /* \"#utility.yul\":1300:1522   */\n      swap3\n      swap2\n      pop\n      pop\n      jump\t// out\n        /* \"#utility.yul\":1528:1605   */\n    tag_65:\n        /* \"#utility.yul\":1565:1572   */\n      0x00\n        /* \"#utility.yul\":1594:1599   */\n      dup2\n        /* \"#utility.yul\":1583:1599   */\n      swap1\n      pop\n        /* \"#utility.yul\":1528:1605   */\n      swap2\n      swap1\n      pop\n      jump\t// out\n        /* \"#utility.yul\":1611:1733   */\n    tag_66:\n        /* \"#utility.yul\":1684:1708   */\n      tag_93\n        /* \"#utility.yul\":1702:1707   */\n      dup2\n        /* \"#utility.yul\":1684:1708   */\n      tag_65\n      jump\t// in\n    tag_93:\n        /* \"#utility.yul\":1677:1682   */\n      dup2\n        /* \"#utility.yul\":1674:1709   */\n      eq\n        /* \"#utility.yul\":1664:1727   */\n      tag_94\n      jumpi\n        /* \"#utility.yul\":1723:1724   */\n      0x00\n        /* \"#utility.yul\":1720:1721   */\n      dup1\n        /* \"#utility.yul\":1713:1725   */\n      revert\n        /* \"#utility.yul\":1664:1727   */\n    tag_94:\n        /* \"#utility.yul\":1611:1733   */\n      pop\n      jump\t// out\n        /* \"#utility.yul\":1739:1878   */\n    tag_67:\n        /* \"#utility.yul\":1785:1790   */\n      0x00\n        /* \"#utility.yul\":1823:1829   */\n      dup2\n        /* \"#utility.yul\":1810:1830   */\n      calldataload\n        /* \"#utility.yul\":1801:1830   */\n      swap1\n      pop\n        /* \"#utility.yul\":1839:1872   */\n      tag_96\n        /* \"#utility.yul\":1866:1871   */\n      dup2\n        /* \"#utility.yul\":1839:1872   */\n      tag_66\n      jump\t// in\n    tag_96:\n        /* \"#utility.yul\":1739:1878   */\n      swap3\n      swap2\n      pop\n      pop\n      jump\t// out\n        /* \"#utility.yul\":1884:2213   */\n    tag_19:\n        /* \"#utility.yul\":1943:1949   */\n      0x00\n        /* \"#utility.yul\":1992:1994   */\n      0x20\n        /* \"#utility.yul\":1980:1989   */\n      dup3\n        /* \"#utility.yul\":1971:1978   */\n      dup5\n        /* \"#utility.yul\":1967:1990   */\n      sub\n        /* \"#utility.yul\":1963:1995   */\n      slt\n        /* \"#utility.yul\":1960:2079   */\n      iszero\n      tag_98\n      jumpi\n        /* \"#utility.yul\":1998:2077   */\n      tag_99\n      tag_58\n      jump\t// in\n    tag_99:\n        /* \"#utility.yul\":1960:2079   */\n    tag_98:\n        /* \"#utility.yul\":2118:2119   */\n      0x00\n        /* \"#utility.yul\":2143:2196   */\n      tag_100\n        /* \"#utility.yul\":2188:2195   */\n      dup5\n        /* \"#utility.yul\":2179:2185   */\n      dup3\n        /* \"#utility.yul\":2168:2177   */\n      dup6\n        /* \"#utility.yul\":2164:2186   */\n      add\n        /* \"#utility.yul\":2143:2196   */\n      tag_67\n      jump\t// in\n    tag_100:\n        /* \"#utility.yul\":2133:2196   */\n      swap2\n      pop\n        /* \"#utility.yul\":2089:2206   */\n      pop\n        /* \"#utility.yul\":1884:2213   */\n      swap3\n      swap2\n      pop\n      pop\n      jump\t// out\n        /* \"#utility.yul\":2219:2383   */\n    tag_68:\n        /* \"#utility.yul\":2370:2376   */\n      0x6c69666500000000000000000000000000000000000000000000000000000000\n        /* \"#utility.yul\":2365:2368   */\n      dup2\n        /* \"#utility.yul\":2358:2377   */\n      mstore\n        /* \"#utility.yul\":2219:2383   */\n      pop\n      jump\t// out\n        /* \"#utility.yul\":2389:2507   */\n    tag_69:\n        /* \"#utility.yul\":2476:2500   */\n      tag_103\n        /* \"#utility.yul\":2494:2499   */\n      dup2\n        /* \"#utility.yul\":2476:2500   */\n      tag_65\n      jump\t// in\n    tag_103:\n        /* \"#utility.yul\":2471:2474   */\n      dup3\n        /* \"#utility.yul\":2464:2501   */\n      mstore\n        /* \"#utility.yul\":2389:2507   */\n      pop\n      pop\n      jump\t// out\n        /* \"#utility.yul\":2513:2971   */\n    tag_38:\n        /* \"#utility.yul\":2697:2701   */\n      0x00\n        /* \"#utility.yul\":2735:2737   */\n      0x40\n        /* \"#utility.yul\":2724:2733   */\n      dup3\n        /* \"#utility.yul\":2720:2738   */\n      add\n        /* \"#utility.yul\":2712:2738   */\n      swap1\n      pop\n        /* \"#utility.yul\":2748:2882   */\n      tag_105\n        /* \"#utility.yul\":2879:2880   */\n      0x00\n        /* \"#utility.yul\":2868:2877   */\n      dup4\n        /* \"#utility.yul\":2864:2881   */\n      add\n        /* \"#utility.yul\":2748:2882   */\n      tag_68\n      jump\t// in\n    tag_105:\n        /* \"#utility.yul\":2892:2964   */\n      tag_106\n        /* \"#utility.yul\":2960:2962   */\n      0x20\n        /* \"#utility.yul\":2949:2958   */\n      dup4\n        /* \"#utility.yul\":2945:2963   */\n      add\n        /* \"#utility.yul\":2936:2942   */\n      dup5\n        /* \"#utility.yul\":2892:2964   */\n      tag_69\n      jump\t// in\n    tag_106:\n        /* \"#utility.yul\":2513:2971   */\n      swap3\n      swap2\n      pop\n      pop\n      jump\t// out\n        /* \"#utility.yul\":2977:3141   */\n    tag_70:\n        /* \"#utility.yul\":3128:3134   */\n      0x666c6f7700000000000000000000000000000000000000000000000000000000\n        /* \"#utility.yul\":3123:3126   */\n      dup2\n        /* \"#utility.yul\":3116:3135   */\n      mstore\n        /* \"#utility.yul\":2977:3141   */\n      pop\n      jump\t// out\n        /* \"#utility.yul\":3147:3605   */\n    tag_53:\n        /* \"#utility.yul\":3331:3335   */\n      0x00\n        /* \"#utility.yul\":3369:3371   */\n      0x40\n        /* \"#utility.yul\":3358:3367   */\n      dup3\n        /* \"#utility.yul\":3354:3372   */\n      add\n        /* \"#utility.yul\":3346:3372   */\n      swap1\n      pop\n        /* \"#utility.yul\":3382:3516   */\n      tag_109\n        /* \"#utility.yul\":3513:3514   */\n      0x00\n        /* \"#utility.yul\":3502:3511   */\n      dup4\n        /* \"#utility.yul\":3498:3515   */\n      add\n        /* \"#utility.yul\":3382:3516   */\n      tag_70\n      jump\t// in\n    tag_109:\n        /* \"#utility.yul\":3526:3598   */\n      tag_110\n        /* \"#utility.yul\":3594:3596   */\n      0x20\n        /* \"#utility.yul\":3583:3592   */\n      dup4\n        /* \"#utility.yul\":3579:3597   */\n      add\n        /* \"#utility.yul\":3570:3576   */\n      dup5\n        /* \"#utility.yul\":3526:3598   */\n      tag_69\n      jump\t// in\n    tag_110:\n        /* \"#utility.yul\":3147:3605   */\n      swap3\n      swap2\n      pop\n      pop\n      jump\t// out\n\n    auxdata: 0xa264697066735822122012db84fc58caa9e1e600d904e8d85538ed004d4c3dbbf06b924a4ebae7b985c364736f6c63430008120033\n}\n",
				"bytecode": {
					"linkReferences": {},
					"object": "60a060405234801561001057600080fd5b503373ffffffffffffffffffffffffffffffffffffffff1660808173ffffffffffffffffffffffffffffffffffffffff168152505060805161087561007c6000396000818161011501528181610287015281816103e60152818161040a015261051d01526108756000f3fe608060405234801561001057600080fd5b50600436106100625760003560e01c806319ab453c146100675780632c6dbb1c146100835780634a225440146100a157806355d6c710146100bd57806381923240146100db5780639aa60802146100f7575b600080fd5b610081600480360381019061007c91906106dc565b610113565b005b61008b610261565b6040516100989190610718565b60405180910390f35b6100bb60048036038101906100b69190610769565b610285565b005b6100c56103e4565b6040516100d29190610718565b60405180910390f35b6100f560048036038101906100f091906106dc565b610408565b005b610111600480360381019061010c9190610769565b61051b565b005b7f000000000000000000000000000000000000000000000000000000000000000073ffffffffffffffffffffffffffffffffffffffff163373ffffffffffffffffffffffffffffffffffffffff1614610198576040517f0b41940b00000000000000000000000000000000000000000000000000000000815260040160405180910390fd5b600073ffffffffffffffffffffffffffffffffffffffff1660008054906101000a900473ffffffffffffffffffffffffffffffffffffffff1673ffffffffffffffffffffffffffffffffffffffff161461021e576040517f6f147afa00000000000000000000000000000000000000000000000000000000815260040160405180910390fd5b806000806101000a81548173ffffffffffffffffffffffffffffffffffffffff021916908373ffffffffffffffffffffffffffffffffffffffff16021790555050565b60008054906101000a900473ffffffffffffffffffffffffffffffffffffffff1681565b7f000000000000000000000000000000000000000000000000000000000000000073ffffffffffffffffffffffffffffffffffffffff163373ffffffffffffffffffffffffffffffffffffffff161461030a576040517f0b41940b00000000000000000000000000000000000000000000000000000000815260040160405180910390fd5b63ba16ea8081118061031f575063039c2b8081105b15610356576040517f6f147afa00000000000000000000000000000000000000000000000000000000815260040160405180910390fd5b60008054906101000a900473ffffffffffffffffffffffffffffffffffffffff1673ffffffffffffffffffffffffffffffffffffffff166329ae8114826040518263ffffffff1660e01b81526004016103af91906107cb565b600060405180830381600087803b1580156103c957600080fd5b505af11580156103dd573d6000803e3d6000fd5b5050505050565b7f000000000000000000000000000000000000000000000000000000000000000081565b7f000000000000000000000000000000000000000000000000000000000000000073ffffffffffffffffffffffffffffffffffffffff163373ffffffffffffffffffffffffffffffffffffffff161461048d576040517f0b41940b00000000000000000000000000000000000000000000000000000000815260040160405180910390fd5b60008054906101000a900473ffffffffffffffffffffffffffffffffffffffff1673ffffffffffffffffffffffffffffffffffffffff1663d975f716826040518263ffffffff1660e01b81526004016104e69190610718565b600060405180830381600087803b15801561050057600080fd5b505af1158015610514573d6000803e3d6000fd5b5050505050565b7f000000000000000000000000000000000000000000000000000000000000000073ffffffffffffffffffffffffffffffffffffffff163373ffffffffffffffffffffffffffffffffffffffff16146105a0576040517f0b41940b00000000000000000000000000000000000000000000000000000000815260040160405180910390fd5b63039ada008111806105b457506202a30081105b156105eb576040517f6f147afa00000000000000000000000000000000000000000000000000000000815260040160405180910390fd5b60008054906101000a900473ffffffffffffffffffffffffffffffffffffffff1673ffffffffffffffffffffffffffffffffffffffff166329ae8114826040518263ffffffff1660e01b81526004016106449190610818565b600060405180830381600087803b15801561065e57600080fd5b505af1158015610672573d6000803e3d6000fd5b5050505050565b600080fd5b600073ffffffffffffffffffffffffffffffffffffffff82169050919050565b60006106a98261067e565b9050919050565b6106b98161069e565b81146106c457600080fd5b50565b6000813590506106d6816106b0565b92915050565b6000602082840312156106f2576106f1610679565b5b6000610700848285016106c7565b91505092915050565b6107128161069e565b82525050565b600060208201905061072d6000830184610709565b92915050565b6000819050919050565b61074681610733565b811461075157600080fd5b50565b6000813590506107638161073d565b92915050565b60006020828403121561077f5761077e610679565b5b600061078d84828501610754565b91505092915050565b7f6c69666500000000000000000000000000000000000000000000000000000000815250565b6107c581610733565b82525050565b60006040820190506107df60008301610796565b6107ec60208301846107bc565b92915050565b7f666c6f7700000000000000000000000000000000000000000000000000000000815250565b600060408201905061082c600083016107f2565b61083960208301846107bc565b9291505056fea264697066735822122012db84fc58caa9e1e600d904e8d85538ed004d4c3dbbf06b924a4ebae7b985c364736f6c63430008120033",
					"opcodes": "PUSH1 0xA0 PUSH1 0x40 MSTORE CALLVALUE DUP1 ISZERO PUSH2 0x10 JUMPI PUSH1 0x0 DUP1 REVERT JUMPDEST POP CALLER PUSH20 0xFFFFFFFFFFFFFFFFFFFFFFFFFFFFFFFFFFFFFFFF AND PUSH1 0x80 DUP2 PUSH20 0xFFFFFFFFFFFFFFFFFFFFFFFFFFFFFFFFFFFFFFFF AND DUP2 MSTORE POP POP PUSH1 0x80 MLOAD PUSH2 0x875 PUSH2 0x7C PUSH1 0x0 CODECOPY PUSH1 0x0 DUP2 DUP2 PUSH2 0x115 ADD MSTORE DUP2 DUP2 PUSH2 0x287 ADD MSTORE DUP2 DUP2 PUSH2 0x3E6 ADD MSTORE DUP2 DUP2 PUSH2 0x40A ADD MSTORE PUSH2 0x51D ADD MSTORE PUSH2 0x875 PUSH1 0x0 RETURN INVALID PUSH1 0x80 PUSH1 0x40 MSTORE CALLVALUE DUP1 ISZERO PUSH2 0x10 JUMPI PUSH1 0x0 DUP1 REVERT JUMPDEST POP PUSH1 0x4 CALLDATASIZE LT PUSH2 0x62 JUMPI PUSH1 0x0 CALLDATALOAD PUSH1 0xE0 SHR DUP1 PUSH4 0x19AB453C EQ PUSH2 0x67 JUMPI DUP1 PUSH4 0x2C6DBB1C EQ PUSH2 0x83 JUMPI DUP1 PUSH4 0x4A225440 EQ PUSH2 0xA1 JUMPI DUP1 PUSH4 0x55D6C710 EQ PUSH2 0xBD JUMPI DUP1 PUSH4 0x81923240 EQ PUSH2 0xDB JUMPI DUP1 PUSH4 0x9AA60802 EQ PUSH2 0xF7 JUMPI JUMPDEST PUSH1 0x0 DUP1 REVERT JUMPDEST PUSH2 0x81 PUSH1 0x4 DUP1 CALLDATASIZE SUB DUP2 ADD SWAP1 PUSH2 0x7C SWAP2 SWAP1 PUSH2 0x6DC JUMP JUMPDEST PUSH2 0x113 JUMP JUMPDEST STOP JUMPDEST PUSH2 0x8B PUSH2 0x261 JUMP JUMPDEST PUSH1 0x40 MLOAD PUSH2 0x98 SWAP2 SWAP1 PUSH2 0x718 JUMP JUMPDEST PUSH1 0x40 MLOAD DUP1 SWAP2 SUB SWAP1 RETURN JUMPDEST PUSH2 0xBB PUSH1 0x4 DUP1 CALLDATASIZE SUB DUP2 ADD SWAP1 PUSH2 0xB6 SWAP2 SWAP1 PUSH2 0x769 JUMP JUMPDEST PUSH2 0x285 JUMP JUMPDEST STOP JUMPDEST PUSH2 0xC5 PUSH2 0x3E4 JUMP JUMPDEST PUSH1 0x40 MLOAD PUSH2 0xD2 SWAP2 SWAP1 PUSH2 0x718 JUMP JUMPDEST PUSH1 0x40 MLOAD DUP1 SWAP2 SUB SWAP1 RETURN JUMPDEST PUSH2 0xF5 PUSH1 0x4 DUP1 CALLDATASIZE SUB DUP2 ADD SWAP1 PUSH2 0xF0 SWAP2 SWAP1 PUSH2 0x6DC JUMP JUMPDEST PUSH2 0x408 JUMP JUMPDEST STOP JUMPDEST PUSH2 0x111 PUSH1 0x4 DUP1 CALLDATASIZE SUB DUP2 ADD SWAP1 PUSH2 0x10C SWAP2 SWAP1 PUSH2 0x769 JUMP JUMPDEST PUSH2 0x51B JUMP JUMPDEST STOP JUMPDEST PUSH32 0x0 PUSH20 0xFFFFFFFFFFFFFFFFFFFFFFFFFFFFFFFFFFFFFFFF AND CALLER PUSH20 0xFFFFFFFFFFFFFFFFFFFFFFFFFFFFFFFFFFFFFFFF AND EQ PUSH2 0x198 JUMPI PUSH1 0x40 MLOAD PUSH32 0xB41940B00000000000000000000000000000000000000000000000000000000 DUP2 MSTORE PUSH1 0x4 ADD PUSH1 0x40 MLOAD DUP1 SWAP2 SUB SWAP1 REVERT JUMPDEST PUSH1 0x0 PUSH20 0xFFFFFFFFFFFFFFFFFFFFFFFFFFFFFFFFFFFFFFFF AND PUSH1 0x0 DUP1 SLOAD SWAP1 PUSH2 0x100 EXP SWAP1 DIV PUSH20 0xFFFFFFFFFFFFFFFFFFFFFFFFFFFFFFFFFFFFFFFF AND PUSH20 0xFFFFFFFFFFFFFFFFFFFFFFFFFFFFFFFFFFFFFFFF AND EQ PUSH2 0x21E JUMPI PUSH1 0x40 MLOAD PUSH32 0x6F147AFA00000000000000000000000000000000000000000000000000000000 DUP2 MSTORE PUSH1 0x4 ADD PUSH1 0x40 MLOAD DUP1 SWAP2 SUB SWAP1 REVERT JUMPDEST DUP1 PUSH1 0x0 DUP1 PUSH2 0x100 EXP DUP2 SLOAD DUP2 PUSH20 0xFFFFFFFFFFFFFFFFFFFFFFFFFFFFFFFFFFFFFFFF MUL NOT AND SWAP1 DUP4 PUSH20 0xFFFFFFFFFFFFFFFFFFFFFFFFFFFFFFFFFFFFFFFF AND MUL OR SWAP1 SSTORE POP POP JUMP JUMPDEST PUSH1 0x0 DUP1 SLOAD SWAP1 PUSH2 0x100 EXP SWAP1 DIV PUSH20 0xFFFFFFFFFFFFFFFFFFFFFFFFFFFFFFFFFFFFFFFF AND DUP2 JUMP JUMPDEST PUSH32 0x0 PUSH20 0xFFFFFFFFFFFFFFFFFFFFFFFFFFFFFFFFFFFFFFFF AND CALLER PUSH20 0xFFFFFFFFFFFFFFFFFFFFFFFFFFFFFFFFFFFFFFFF AND EQ PUSH2 0x30A JUMPI PUSH1 0x40 MLOAD PUSH32 0xB41940B00000000000000000000000000000000000000000000000000000000 DUP2 MSTORE PUSH1 0x4 ADD PUSH1 0x40 MLOAD DUP1 SWAP2 SUB SWAP1 REVERT JUMPDEST PUSH4 0xBA16EA80 DUP2 GT DUP1 PUSH2 0x31F JUMPI POP PUSH4 0x39C2B80 DUP2 LT JUMPDEST ISZERO PUSH2 0x356 JUMPI PUSH1 0x40 MLOAD PUSH32 0x6F147AFA00000000000000000000000000000000000000000000000000000000 DUP2 MSTORE PUSH1 0x4 ADD PUSH1 0x40 MLOAD DUP1 SWAP2 SUB SWAP1 REVERT JUMPDEST PUSH1 0x0 DUP1 SLOAD SWAP1 PUSH2 0x100 EXP SWAP1 DIV PUSH20 0xFFFFFFFFFFFFFFFFFFFFFFFFFFFFFFFFFFFFFFFF AND PUSH20 0xFFFFFFFFFFFFFFFFFFFFFFFFFFFFFFFFFFFFFFFF AND PUSH4 0x29AE8114 DUP3 PUSH1 0x40 MLOAD DUP3 PUSH4 0xFFFFFFFF AND PUSH1 0xE0 SHL DUP2 MSTORE PUSH1 0x4 ADD PUSH2 0x3AF SWAP2 SWAP1 PUSH2 0x7CB JUMP JUMPDEST PUSH1 0x0 PUSH1 0x40 MLOAD DUP1 DUP4 SUB DUP2 PUSH1 0x0 DUP8 DUP1 EXTCODESIZE ISZERO DUP1 ISZERO PUSH2 0x3C9 JUMPI PUSH1 0x0 DUP1 REVERT JUMPDEST POP GAS CALL ISZERO DUP1 ISZERO PUSH2 0x3DD JUMPI RETURNDATASIZE PUSH1 0x0 DUP1 RETURNDATACOPY RETURNDATASIZE PUSH1 0x0 REVERT JUMPDEST POP POP POP POP POP JUMP JUMPDEST PUSH32 0x0 DUP2 JUMP JUMPDEST PUSH32 0x0 PUSH20 0xFFFFFFFFFFFFFFFFFFFFFFFFFFFFFFFFFFFFFFFF AND CALLER PUSH20 0xFFFFFFFFFFFFFFFFFFFFFFFFFFFFFFFFFFFFFFFF AND EQ PUSH2 0x48D JUMPI PUSH1 0x40 MLOAD PUSH32 0xB41940B00000000000000000000000000000000000000000000000000000000 DUP2 MSTORE PUSH1 0x4 ADD PUSH1 0x40 MLOAD DUP1 SWAP2 SUB SWAP1 REVERT JUMPDEST PUSH1 0x0 DUP1 SLOAD SWAP1 PUSH2 0x100 EXP SWAP1 DIV PUSH20 0xFFFFFFFFFFFFFFFFFFFFFFFFFFFFFFFFFFFFFFFF AND PUSH20 0xFFFFFFFFFFFFFFFFFFFFFFFFFFFFFFFFFFFFFFFF AND PUSH4 0xD975F716 DUP3 PUSH1 0x40 MLOAD DUP3 PUSH4 0xFFFFFFFF AND PUSH1 0xE0 SHL DUP2 MSTORE PUSH1 0x4 ADD PUSH2 0x4E6 SWAP2 SWAP1 PUSH2 0x718 JUMP JUMPDEST PUSH1 0x0 PUSH1 0x40 MLOAD DUP1 DUP4 SUB DUP2 PUSH1 0x0 DUP8 DUP1 EXTCODESIZE ISZERO DUP1 ISZERO PUSH2 0x500 JUMPI PUSH1 0x0 DUP1 REVERT JUMPDEST POP GAS CALL ISZERO DUP1 ISZERO PUSH2 0x514 JUMPI RETURNDATASIZE PUSH1 0x0 DUP1 RETURNDATACOPY RETURNDATASIZE PUSH1 0x0 REVERT JUMPDEST POP POP POP POP POP JUMP JUMPDEST PUSH32 0x0 PUSH20 0xFFFFFFFFFFFFFFFFFFFFFFFFFFFFFFFFFFFFFFFF AND CALLER PUSH20 0xFFFFFFFFFFFFFFFFFFFFFFFFFFFFFFFFFFFFFFFF AND EQ PUSH2 0x5A0 JUMPI PUSH1 0x40 MLOAD PUSH32 0xB41940B00000000000000000000000000000000000000000000000000000000 DUP2 MSTORE PUSH1 0x4 ADD PUSH1 0x40 MLOAD DUP1 SWAP2 SUB SWAP1 REVERT JUMPDEST PUSH4 0x39ADA00 DUP2 GT DUP1 PUSH2 0x5B4 JUMPI POP PUSH3 0x2A300 DUP2 LT JUMPDEST ISZERO PUSH2 0x5EB JUMPI PUSH1 0x40 MLOAD PUSH32 0x6F147AFA00000000000000000000000000000000000000000000000000000000 DUP2 MSTORE PUSH1 0x4 ADD PUSH1 0x40 MLOAD DUP1 SWAP2 SUB SWAP1 REVERT JUMPDEST PUSH1 0x0 DUP1 SLOAD SWAP1 PUSH2 0x100 EXP SWAP1 DIV PUSH20 0xFFFFFFFFFFFFFFFFFFFFFFFFFFFFFFFFFFFFFFFF AND PUSH20 0xFFFFFFFFFFFFFFFFFFFFFFFFFFFFFFFFFFFFFFFF AND PUSH4 0x29AE8114 DUP3 PUSH1 0x40 MLOAD DUP3 PUSH4 0xFFFFFFFF AND PUSH1 0xE0 SHL DUP2 MSTORE PUSH1 0x4 ADD PUSH2 0x644 SWAP2 SWAP1 PUSH2 0x818 JUMP JUMPDEST PUSH1 0x0 PUSH1 0x40 MLOAD DUP1 DUP4 SUB DUP2 PUSH1 0x0 DUP8 DUP1 EXTCODESIZE ISZERO DUP1 ISZERO PUSH2 0x65E JUMPI PUSH1 0x0 DUP1 REVERT JUMPDEST POP GAS CALL ISZERO DUP1 ISZERO PUSH2 0x672 JUMPI RETURNDATASIZE PUSH1 0x0 DUP1 RETURNDATACOPY RETURNDATASIZE PUSH1 0x0 REVERT JUMPDEST POP POP POP POP POP JUMP JUMPDEST PUSH1 0x0 DUP1 REVERT JUMPDEST PUSH1 0x0 PUSH20 0xFFFFFFFFFFFFFFFFFFFFFFFFFFFFFFFFFFFFFFFF DUP3 AND SWAP1 POP SWAP2 SWAP1 POP JUMP JUMPDEST PUSH1 0x0 PUSH2 0x6A9 DUP3 PUSH2 0x67E JUMP JUMPDEST SWAP1 POP SWAP2 SWAP1 POP JUMP JUMPDEST PUSH2 0x6B9 DUP2 PUSH2 0x69E JUMP JUMPDEST DUP2 EQ PUSH2 0x6C4 JUMPI PUSH1 0x0 DUP1 REVERT JUMPDEST POP JUMP JUMPDEST PUSH1 0x0 DUP2 CALLDATALOAD SWAP1 POP PUSH2 0x6D6 DUP2 PUSH2 0x6B0 JUMP JUMPDEST SWAP3 SWAP2 POP POP JUMP JUMPDEST PUSH1 0x0 PUSH1 0x20 DUP3 DUP5 SUB SLT ISZERO PUSH2 0x6F2 JUMPI PUSH2 0x6F1 PUSH2 0x679 JUMP JUMPDEST JUMPDEST PUSH1 0x0 PUSH2 0x700 DUP5 DUP3 DUP6 ADD PUSH2 0x6C7 JUMP JUMPDEST SWAP2 POP POP SWAP3 SWAP2 POP POP JUMP JUMPDEST PUSH2 0x712 DUP2 PUSH2 0x69E JUMP JUMPDEST DUP3 MSTORE POP POP JUMP JUMPDEST PUSH1 0x0 PUSH1 0x20 DUP3 ADD SWAP1 POP PUSH2 0x72D PUSH1 0x0 DUP4 ADD DUP5 PUSH2 0x709 JUMP JUMPDEST SWAP3 SWAP2 POP POP JUMP JUMPDEST PUSH1 0x0 DUP2 SWAP1 POP SWAP2 SWAP1 POP JUMP JUMPDEST PUSH2 0x746 DUP2 PUSH2 0x733 JUMP JUMPDEST DUP2 EQ PUSH2 0x751 JUMPI PUSH1 0x0 DUP1 REVERT JUMPDEST POP JUMP JUMPDEST PUSH1 0x0 DUP2 CALLDATALOAD SWAP1 POP PUSH2 0x763 DUP2 PUSH2 0x73D JUMP JUMPDEST SWAP3 SWAP2 POP POP JUMP JUMPDEST PUSH1 0x0 PUSH1 0x20 DUP3 DUP5 SUB SLT ISZERO PUSH2 0x77F JUMPI PUSH2 0x77E PUSH2 0x679 JUMP JUMPDEST JUMPDEST PUSH1 0x0 PUSH2 0x78D DUP5 DUP3 DUP6 ADD PUSH2 0x754 JUMP JUMPDEST SWAP2 POP POP SWAP3 SWAP2 POP POP JUMP JUMPDEST PUSH32 0x6C69666500000000000000000000000000000000000000000000000000000000 DUP2 MSTORE POP JUMP JUMPDEST PUSH2 0x7C5 DUP2 PUSH2 0x733 JUMP JUMPDEST DUP3 MSTORE POP POP JUMP JUMPDEST PUSH1 0x0 PUSH1 0x40 DUP3 ADD SWAP1 POP PUSH2 0x7DF PUSH1 0x0 DUP4 ADD PUSH2 0x796 JUMP JUMPDEST PUSH2 0x7EC PUSH1 0x20 DUP4 ADD DUP5 PUSH2 0x7BC JUMP JUMPDEST SWAP3 SWAP2 POP POP JUMP JUMPDEST PUSH32 0x666C6F7700000000000000000000000000000000000000000000000000000000 DUP2 MSTORE POP JUMP JUMPDEST PUSH1 0x0 PUSH1 0x40 DUP3 ADD SWAP1 POP PUSH2 0x82C PUSH1 0x0 DUP4 ADD PUSH2 0x7F2 JUMP JUMPDEST PUSH2 0x839 PUSH1 0x20 DUP4 ADD DUP5 PUSH2 0x7BC JUMP JUMPDEST SWAP3 SWAP2 POP POP JUMP INVALID LOG2 PUSH5 0x6970667358 0x22 SLT KECCAK256 SLT 0xDB DUP5 0xFC PC 0xCA 0xA9 0xE1 0xE6 STOP 0xD9 DIV 0xE8 0xD8 SSTORE CODESIZE 0xED STOP 0x4D 0x4C RETURNDATASIZE 0xBB CREATE PUSH12 0x924A4EBAE7B985C364736F6C PUSH4 0x43000812 STOP CALLER "
				},
				"gasEstimates": {
					"creation": {
						"codeDepositCost": "433000",
						"executionCost": "infinite",
						"totalCost": "infinite"
					},
					"external": {
						"init(address)": "infinite",
						"leap(uint256)": "infinite",
						"mine(address)": "infinite",
						"sail(uint256)": "infinite",
						"star()": "2511",
						"ward()": "infinite"
					}
				},
				"methodIdentifiers": {
					"init(address)": "19ab453c",
					"leap(uint256)": "9aa60802",
					"mine(address)": "81923240",
					"sail(uint256)": "4a225440",
					"star()": "2c6dbb1c",
					"ward()": "55d6c710"
				}
			},
			"storageLayout": {
				"storage": [
					{
						"astId": 16,
						"contract": "src/CrossDao.sol:CrossDao",
						"label": "star",
						"offset": 0,
						"slot": "0",
						"type": "t_address"
					}
				],
				"types": {
					"t_address": {
						"encoding": "inplace",
						"label": "address",
						"numberOfBytes": "20"
					}
				}
			},
			"userdoc": {
				"kind": "user",
				"methods": {},
				"version": 1
			}
		}
	}
}